:100000000C9434000C943E000C943E000C943E0082
:100010000C943E000C943E000C943E000C943E0068
:100020000C943E000C943E000C943E000C943E0058
:100030000C943E000C943E000C943E000C943E0048
:100040000C943E000C943E000C943E000C943E0038
:100050000C943E000C943E000C943E000C943E0028
:100060000C943E000C943E0011241FBECFEFD8E04C
:10007000DEBFCDBF0E9453000C9466000C940000BC
:1000800000E204B98F9345E003D085B98F910895BC
:10009000880F4A95E9F708958A95F1F76A95E1F78F
:1000A0004A95D1F708950E94400080E00E944200E6
:1000B00046E360E080E00E944C0081E00E94420044
:1000C00046E360E080E00E944C00EDCFF894FFCF63
:00000001FF
