:100000000C9434000C943E000C943E000C943E0082
:100010000C943E000C943E000C943E000C943E0068
:100020000C943E000C943E000C943E000C943E0058
:100030000C943E000C943E000C943E000C943E0048
:100040000C943E000C943E000C943E000C943E0038
:100050000C943E000C943E000C943E000C943E0028
:100060000C943E000C943E0011241FBECFEFD8E04C
:10007000DEBFCDBF0E944C000C9452000C940000D7
:1000800000E204B98F9345E003D085B98F910895BC
:10009000880F4A95E9F708950E94400080E00E9489
:0800A0004200FACFF894FFCFF3
:00000001FF
